{
  "contractName": "ProductRegistry",
  "abi": [
    {
      "constant": true,
      "inputs": [
        {
          "name": "",
          "type": "uint256"
        }
      ],
      "name": "products",
      "outputs": [
        {
          "name": "id",
          "type": "uint256"
        },
        {
          "name": "name",
          "type": "string"
        },
        {
          "name": "price",
          "type": "uint256"
        }
      ],
      "payable": false,
      "stateMutability": "view",
      "type": "function",
      "signature": "0x7acc0b20"
    },
    {
      "constant": true,
      "inputs": [],
      "name": "productCount",
      "outputs": [
        {
          "name": "",
          "type": "uint256"
        }
      ],
      "payable": false,
      "stateMutability": "view",
      "type": "function",
      "signature": "0xe0f6ef87"
    },
    {
      "anonymous": false,
      "inputs": [
        {
          "indexed": true,
          "name": "id",
          "type": "uint256"
        },
        {
          "indexed": false,
          "name": "name",
          "type": "string"
        },
        {
          "indexed": false,
          "name": "price",
          "type": "uint256"
        }
      ],
      "name": "ProductRegistered",
      "type": "event",
      "signature": "0x57030c25126c4f4705ce7d82daf497a7005ee8015063d65c5c89481076f13864"
    },
    {
      "constant": false,
      "inputs": [
        {
          "name": "_name",
          "type": "string"
        },
        {
          "name": "_price",
          "type": "uint256"
        }
      ],
      "name": "registerProduct",
      "outputs": [],
      "payable": false,
      "stateMutability": "nonpayable",
      "type": "function",
      "signature": "0x8c96091b"
    }
  ],
  "bytecode": "0x608060405234801561001057600080fd5b506104d7806100206000396000f3fe608060405260043610610057576000357c0100000000000000000000000000000000000000000000000000000000900463ffffffff1680637acc0b201461005c5780638c96091b1461011e578063e0f6ef87146101f0575b600080fd5b34801561006857600080fd5b506100956004803603602081101561007f57600080fd5b810190808035906020019092919050505061021b565b6040518084815260200180602001838152602001828103825284818151815260200191508051906020019080838360005b838110156100e15780820151818401526020810190506100c6565b50505050905090810190601f16801561010e5780820380516001836020036101000a031916815260200191505b5094505050505060405180910390f35b34801561012a57600080fd5b506101ee6004803603604081101561014157600080fd5b810190808035906020019064010000000081111561015e57600080fd5b82018360208201111561017057600080fd5b8035906020019184600183028401116401000000008311171561019257600080fd5b91908080601f016020809104026020016040519081016040528093929190818152602001838380828437600081840152601f19601f820116905080830192505050505050509192919290803590602001909291905050506102dd565b005b3480156101fc57600080fd5b50610205610400565b6040518082815260200191505060405180910390f35b6000602052806000526040600020600091509050806000015490806001018054600181600116156101000203166002900480601f0160208091040260200160405190810160405280929190818152602001828054600181600116156101000203166002900480156102cd5780601f106102a2576101008083540402835291602001916102cd565b820191906000526020600020905b8154815290600101906020018083116102b057829003601f168201915b5050505050908060020154905083565b6001600081548092919060010191905055506060604051908101604052806001548152602001838152602001828152506000806001548152602001908152602001600020600082015181600001556020820151816001019080519060200190610347929190610406565b50604082015181600201559050506001547f57030c25126c4f4705ce7d82daf497a7005ee8015063d65c5c89481076f1386483836040518080602001838152602001828103825284818151815260200191508051906020019080838360005b838110156103c15780820151818401526020810190506103a6565b50505050905090810190601f1680156103ee5780820380516001836020036101000a031916815260200191505b50935050505060405180910390a25050565b60015481565b828054600181600116156101000203166002900490600052602060002090601f016020900481019282601f1061044757805160ff1916838001178555610475565b82800160010185558215610475579182015b82811115610474578251825591602001919060010190610459565b5b5090506104829190610486565b5090565b6104a891905b808211156104a457600081600090555060010161048c565b5090565b9056fea165627a7a723058203439ff866d165bee2621655673b2de29a036c2b2c03b80e32ea909fe68cd94dc0029",
  "source": "// SPDX-License-Identifier: MIT\npragma solidity >=0.4.22 <0.9.0;\n\ncontract ProductRegistry {\n    struct Product {\n        uint256 id;\n        string name;\n        uint256 price;\n    }\n\n    mapping(uint256 => Product) public products;\n    uint256 public productCount;\n\n    event ProductRegistered(uint256 indexed id, string name, uint256 price);\n\n    function registerProduct(string memory _name, uint256 _price) public {\n        productCount++;\n        products[productCount] = Product(productCount, _name, _price);\n        emit ProductRegistered(productCount, _name, _price);\n    }\n}",
  "sourcePath": "C:/Users/Jai/Desktop/finalproject/contracts/new.sol",
  "compiler": {
    "name": "solc",
    "version": "0.5.0+commit.1d4f565a.Emscripten.clang"
  },
  "schemaVersion": "3.0.2",
  "updatedAt": "2024-04-15T19:47:44.275Z",
  "devdoc": {
    "methods": {}
  },
  "userdoc": {
    "methods": {}
  }
}